{
  "_format": "hh-sol-artifact-1",
  "contractName": "StoryIPRegister",
  "sourceName": "contracts/StoryIPRegistry.sol",
  "abi": [
    {
      "anonymous": false,
      "inputs": [
        {
          "indexed": true,
          "internalType": "uint256",
          "name": "assetId",
          "type": "uint256"
        },
        {
          "indexed": true,
          "internalType": "address",
          "name": "owner",
          "type": "address"
        },
        {
          "indexed": false,
          "internalType": "string",
          "name": "title",
          "type": "string"
        },
        {
          "indexed": false,
          "internalType": "string",
          "name": "contentHash",
          "type": "string"
        },
        {
          "indexed": false,
          "internalType": "string",
          "name": "metadataJSON",
          "type": "string"
        },
        {
          "indexed": false,
          "internalType": "uint256",
          "name": "timestamp",
          "type": "uint256"
        }
      ],
      "name": "AssetRegistered",
      "type": "event"
    },
    {
      "inputs": [
        {
          "internalType": "uint256",
          "name": "",
          "type": "uint256"
        }
      ],
      "name": "assets",
      "outputs": [
        {
          "internalType": "uint256",
          "name": "id",
          "type": "uint256"
        },
        {
          "internalType": "string",
          "name": "title",
          "type": "string"
        },
        {
          "internalType": "string",
          "name": "contentHash",
          "type": "string"
        },
        {
          "internalType": "string",
          "name": "metadataJSON",
          "type": "string"
        },
        {
          "internalType": "address",
          "name": "owner",
          "type": "address"
        },
        {
          "internalType": "uint256",
          "name": "timestamp",
          "type": "uint256"
        }
      ],
      "stateMutability": "view",
      "type": "function"
    },
    {
      "inputs": [
        {
          "internalType": "uint256",
          "name": "assetId",
          "type": "uint256"
        }
      ],
      "name": "getAsset",
      "outputs": [
        {
          "internalType": "uint256",
          "name": "id",
          "type": "uint256"
        },
        {
          "internalType": "string",
          "name": "title",
          "type": "string"
        },
        {
          "internalType": "string",
          "name": "contentHash",
          "type": "string"
        },
        {
          "internalType": "string",
          "name": "metadataJSON",
          "type": "string"
        },
        {
          "internalType": "address",
          "name": "owner",
          "type": "address"
        },
        {
          "internalType": "uint256",
          "name": "timestamp",
          "type": "uint256"
        }
      ],
      "stateMutability": "view",
      "type": "function"
    },
    {
      "inputs": [
        {
          "internalType": "address",
          "name": "owner",
          "type": "address"
        }
      ],
      "name": "getAssetsByOwner",
      "outputs": [
        {
          "internalType": "uint256[]",
          "name": "",
          "type": "uint256[]"
        }
      ],
      "stateMutability": "view",
      "type": "function"
    },
    {
      "inputs": [
        {
          "internalType": "address",
          "name": "",
          "type": "address"
        },
        {
          "internalType": "uint256",
          "name": "",
          "type": "uint256"
        }
      ],
      "name": "ownerToAssets",
      "outputs": [
        {
          "internalType": "uint256",
          "name": "",
          "type": "uint256"
        }
      ],
      "stateMutability": "view",
      "type": "function"
    },
    {
      "inputs": [
        {
          "internalType": "string",
          "name": "title",
          "type": "string"
        },
        {
          "internalType": "string",
          "name": "contentHash",
          "type": "string"
        },
        {
          "internalType": "string",
          "name": "metadataJSON",
          "type": "string"
        }
      ],
      "name": "registerAsset",
      "outputs": [
        {
          "internalType": "uint256",
          "name": "",
          "type": "uint256"
        }
      ],
      "stateMutability": "nonpayable",
      "type": "function"
    }
  ],
  "bytecode": "0x60806040526001600055348015601457600080fd5b50610b26806100246000396000f3fe608060405234801561001057600080fd5b50600436106100575760003560e01c8063276f09341461005c578063881d4c6e14610085578063adc649e1146100a6578063cf35bdd0146100b9578063eac8f5b8146100de575b600080fd5b61006f61006a3660046106b1565b6100f1565b60405161007c91906106d3565b60405180910390f35b6100986100933660046107bb565b61015d565b60405190815260200161007c565b6100986100b436600461084f565b610290565b6100cc6100c7366004610879565b6102c1565b60405161007c969594939291906108d8565b6100cc6100ec366004610879565b610497565b6001600160a01b03811660009081526002602090815260409182902080548351818402810184019094528084526060939283018282801561015157602002820191906000526020600020905b81548152602001906001019080831161013d575b50505050509050919050565b600080548190818061016e83610936565b909155506040805160c0810182528281526020808201898152828401899052606083018890523360808401524260a08401526000858152600192839052939093208251815592519394509092908201906101c890826109e6565b50604082015160028201906101dd90826109e6565b50606082015160038201906101f290826109e6565b5060808201516004820180546001600160a01b0319166001600160a01b0390921691909117905560a090910151600590910155336000818152600260209081526040808320805460018101825590845291909220018390555182907f0b5ff00c44afe41176d4e8267bb5c9b6ed982278494360fd8cd5514a29d11df090610280908990899089904290610aa5565b60405180910390a3949350505050565b600260205281600052604060002081815481106102ac57600080fd5b90600052602060002001600091509150505481565b6001602081905260009182526040909120805491810180546102e29061095d565b80601f016020809104026020016040519081016040528092919081815260200182805461030e9061095d565b801561035b5780601f106103305761010080835404028352916020019161035b565b820191906000526020600020905b81548152906001019060200180831161033e57829003601f168201915b5050505050908060020180546103709061095d565b80601f016020809104026020016040519081016040528092919081815260200182805461039c9061095d565b80156103e95780601f106103be576101008083540402835291602001916103e9565b820191906000526020600020905b8154815290600101906020018083116103cc57829003601f168201915b5050505050908060030180546103fe9061095d565b80601f016020809104026020016040519081016040528092919081815260200182805461042a9061095d565b80156104775780601f1061044c57610100808354040283529160200191610477565b820191906000526020600020905b81548152906001019060200180831161045a57829003601f168201915b50505050600483015460059093015491926001600160a01b031691905086565b600081815260016020819052604082208054600482015460058301549383018054606095869586958995869592949193600286019260038701926001600160a01b0316919085906104e79061095d565b80601f01602080910402602001604051908101604052809291908181526020018280546105139061095d565b80156105605780601f1061053557610100808354040283529160200191610560565b820191906000526020600020905b81548152906001019060200180831161054357829003601f168201915b505050505094508380546105739061095d565b80601f016020809104026020016040519081016040528092919081815260200182805461059f9061095d565b80156105ec5780601f106105c1576101008083540402835291602001916105ec565b820191906000526020600020905b8154815290600101906020018083116105cf57829003601f168201915b505050505093508280546105ff9061095d565b80601f016020809104026020016040519081016040528092919081815260200182805461062b9061095d565b80156106785780601f1061064d57610100808354040283529160200191610678565b820191906000526020600020905b81548152906001019060200180831161065b57829003601f168201915b505050505092509650965096509650965096505091939550919395565b80356001600160a01b03811681146106ac57600080fd5b919050565b6000602082840312156106c357600080fd5b6106cc82610695565b9392505050565b602080825282518282018190526000918401906040840190835b8181101561070b5783518352602093840193909201916001016106ed565b509095945050505050565b634e487b7160e01b600052604160045260246000fd5b600082601f83011261073d57600080fd5b813567ffffffffffffffff81111561075757610757610716565b604051601f8201601f19908116603f0116810167ffffffffffffffff8111828210171561078657610786610716565b60405281815283820160200185101561079e57600080fd5b816020850160208301376000918101602001919091529392505050565b6000806000606084860312156107d057600080fd5b833567ffffffffffffffff8111156107e757600080fd5b6107f38682870161072c565b935050602084013567ffffffffffffffff81111561081057600080fd5b61081c8682870161072c565b925050604084013567ffffffffffffffff81111561083957600080fd5b6108458682870161072c565b9150509250925092565b6000806040838503121561086257600080fd5b61086b83610695565b946020939093013593505050565b60006020828403121561088b57600080fd5b5035919050565b6000815180845260005b818110156108b85760208185018101518683018201520161089c565b506000602082860101526020601f19601f83011685010191505092915050565b86815260c0602082015260006108f160c0830188610892565b82810360408401526109038188610892565b905082810360608401526109178187610892565b6001600160a01b03959095166080840152505060a00152949350505050565b60006001820161095657634e487b7160e01b600052601160045260246000fd5b5060010190565b600181811c9082168061097157607f821691505b60208210810361099157634e487b7160e01b600052602260045260246000fd5b50919050565b601f8211156109e157806000526020600020601f840160051c810160208510156109be5750805b601f840160051c820191505b818110156109de57600081556001016109ca565b50505b505050565b815167ffffffffffffffff811115610a0057610a00610716565b610a1481610a0e845461095d565b84610997565b6020601f821160018114610a485760008315610a305750848201515b600019600385901b1c1916600184901b1784556109de565b600084815260208120601f198516915b82811015610a785787850151825560209485019460019092019101610a58565b5084821015610a965786840151600019600387901b60f8161c191681555b50505050600190811b01905550565b608081526000610ab86080830187610892565b8281036020840152610aca8187610892565b90508281036040840152610ade8186610892565b9150508260608301529594505050505056fea26469706673582212208da04308001d3f04722d35b0e2e90463404ea909fc9ca4edc477ffb972b0dc0964736f6c634300081c0033",
  "linkReferences": {},
  "deployedLinkReferences": {}
}